:020000040800F2
:1000000098600020893C00087B3B00087D3B00088D
:100010007F3B0008813B0008833B00080000000094
:10002000000000000000000000000000853B000808
:10003000873B000800000000893B00088B3B00085C
:10004000D53C0008D93C0008DD3C0008E13C000834
:10005000E53C0008E93C0008ED3C0008F13C0008E4
:10006000F53C0008F93C0008FD3C0008013D000893
:10007000053D0008093D00080D3D0008113D000840
:10008000153D0008193D00081D3D0008213D0008F0
:10009000253D0008293D00082D3D0008933B000840
:1000A000313D0008353D0008393D00083D3D000860
:1000B000413D0008453D0008493D00084D3D000810
:1000C000513D0008553D0008593D00085D3D0008C0
:1000D000613D0008653D0008693D00086D3D000870
:1000E0009F3B0008713D0008753D0008793D000800
:1000F0007D3D0008813D0008853D0008893D0008E0
:100100008D3D0008913D0008953D0008993D00088F
:100110009D3D0008A13D0008A53D0008A93D00083F
:10012000AD3D0008B13D0008B53D0008B93D0008EF
:10013000BD3D0008C13D0008C53D0008C93D00089F
:10014000CD3D0008D13D0008D53D0008D93D00084F
:10015000DD3D0008E13D0008E53D0008E93D0008FF
:10016000ED3D0008F13D0008F53D0008F93D0008AF
:10017000FD3D0008013E0008053E000800000000AB
:10018000093E00080D3E0008113E0008153E00081B
:10019000193E00081D3E0008213E0008253E0008CB
:1001A000293E00082D3E0008313E00082DE9F04FA1
:1001B000DFF81006942101604FF49B71416040F21A
:1001C000EB1181604FF42071C1604FF44D740461F4
:1001D0004FF47A7141614FF49661816140F255515B
:1001E000C16140F22761016240F2D1614162DFF8F2
:1001F000D865AA2030604FF4AF70706040F21720CD
:10020000B06040F2DE20F06040F2A230306140F297
:100210006F40706140F23250B06140F2FA50F061CC
:1002200040F2C267376240F2857070629820B06217
:1002300040F23B15F56240F2E91030634FF42A704A
:10024000706340F26D31B16340F21B41F16340F2E3
:10025000DA41316440F28C51716440F25461B1640E
:1002600040F21271F1648921316540F21F1171650C
:1002700040F2C311B16540F27121F16540F22131C4
:10028000316640F2CA31716640F27941B16640F29E
:100290001451F16640F2D151316740F27C617167CF
:1002A0007E21B16740F20F11F16740F2A311C6F849
:1002B000801040F24E21C6F8841040F2E921C6F8C1
:1002C000881040F28E31C6F88C1040F22E4CC6F8E1
:1002D00090C040F2D341C6F8941040F26951C6F87C
:1002E000981040F20E61C6F89C107E21C6F8A0104E
:1002F00040F20911C6F8A41040F28B11C6F8A810FC
:100300004FF40C71C6F8AC1040F2CB21C6F8B01017
:1003100040F2663EC6F8B4E04FF47F71C6F8B810FC
:100320004FF49168C6F8BC8040F23A51C6F8C0104C
:1003300040F2DC51C6F8C4107E21C6F8C8104FF454
:100340008272C6F8CC204FF4C371C6F8D01040F2C8
:100350001221C6F8D41040F2C123C6F8D8304FF4A9
:100360005773C6F8DC3040F2F233C6F8E030C6F816
:10037000E48040F22353C6F8E83040F2AF53C6F8A9
:10038000EC307823C6F8F030C6F8F4204FF4C87289
:10039000C6F8F82040F22622C6F8FC2040F2CD2311
:1003A000C6F80031C6F804E140F2F733C6F8083168
:1003B00040F29243C6F80C314FF4A569C6F810918B
:1003C00040F2BE53C6F814317D23C6F818314FF4FD
:1003D0008C73C6F81C3140F2A713C6F820314FF4D5
:1003E0001173C6F8243140F2EE2AC6F828A14FF462
:1003F0006673C6F82C314FF48763C6F8303140F28B
:10040000CE43C6F8343140F26E53C6F8383140F26C
:100410001363C6F83C315FF08E0BC6F840B14FF461
:10042000967BC6F844B14FF4E67BC6F848B140F27B
:100430007B2BC6F84CB1C6F8504140F2D934C6F80F
:10044000544140F27E44C6F85841C6F85C914FF4DE
:10045000B964C6F8604140F25E64C6F864418E2417
:10046000C6F8684140F24514C6F86C4140F2EF14FA
:10047000C6F87041C6F87401C6F878E1C6F87CC1C8
:100480004FF49B64C6F8804140F29154C6F8844111
:100490004FF4C864C6F8884140F2D664C6F88C416F
:1004A0009B24C6F8904140F26314C6F894414FF47F
:1004B0000774C6F89841C6F89CA14FF47074C6F84A
:1004C000A041C6F8A48140F23C54C6F8A84140F2CD
:1004D000F554C6F8AC41C6F8B07140F28A74C6F85B
:1004E000B441DFF8984B00262660282666603C263B
:1004F000A6605026E66064262661782666618C2612
:10050000A661DFF87C4B40F29E2626604FF404760D
:10051000666040F2C516A66040F28916E6604FF4A8
:10052000B0762661656140F21D15A561DFF8544B78
:100530002C252560292565602825A5602625E560F0
:1005400024252561222565612025A561DFF8384B2A
:100550000026DFF8387BC4E900670026DFF8307B2F
:10056000C4E902670026DFF82C7BC4E90467002693
:10057000DFF8247BC4E906670026DFF8207BC4E9A6
:1005800008670026DFF8187BC4E90A670026DFF851
:10059000147BC4E90C670026DFF80C7BC4E90E6706
:1005A0000026DFF8087BC4E910670026DFF8007B2F
:1005B000C4E912670026DFF8FC7AC4E91467DFF8A3
:1005C000084B00252560616040F25731A16040F280
:1005D0009C41E16040F2E151216140F22675656184
:1005E00040F66B05A5610025E561226240F27A3292
:1005F000626240F2C442A262E36240F2627222632B
:1006000040F6B10262630022A26340F23522E26347
:1006100040F28932226440F2E242626440F2456272
:10062000A26440F2A372E26440F601122265002245
:10063000626540F25322A26540F2B132E26540F2B7
:100640000F52226640F26D62626640F2CB72A26681
:1006500040F62912E2660022226740F25D226267BC
:1006600040F2CA32A26740F23752E26740F2B36208
:10067000C4F8802040F62502C4F8842040F6971282
:10068000C4F888200022C4F88C2040F27622C4F8F6
:1006900090204FF47A72C4F8942040F25F52C4F86C
:1006A000982040F2D362C4F89C2040F64702C4F878
:1006B000A02040F6BB12C4F8A4200022C4F8A82051
:1006C0004FF42072C4F8AC2040F20642C4F8B020C7
:1006D00040F28752C4F8B42040F20A72C4F8B8203D
:1006E00040F68D02C4F8BC204FF42162C4F8C0204B
:1006F0000022C4F8C4204FF42572C4F8C82040F288
:100700002942C4F8CC2040F2B452C4F8D02040F2C0
:100710004472C4F8D42040F6D402C4F8D82040F67D
:100720006422C4F8DC200022C4F8E020C4F8E4000D
:1007300040F24240C4F8E800C4F8EC1040F27D708A
:10074000C4F8F00040F61910C4F8F40040F6B520E3
:10075000C4F8F8000020C4F8FC004FF42F70C4F86F
:1007600000014FF48C60C4F8040140F20460C4F846
:1007700008014FF4F560C4F80C0140F64C10C4F8C1
:1007800010014FF42F60C4F814010020C4F81801C0
:100790004FF43470C4F81C0140F27440C4F82001D6
:1007A0004FF4C360C4F8240140F2BC70C4F82801BF
:1007B0004FF41660C4F82C0140F60430C4F8300140
:1007C000BDE8F08F00580020445400202DE9F84F78
:1007D00084B000F0A3FC00F0F9FBB42000F0B8FCFA
:1007E00000F0F4FC00F05AFE00F0D4FEFFF7DEFC4F
:1007F000DFF8C4480021200000F044FFDFF8BC58B7
:10080000DFF87C08296850F8213000220021200000
:1008100000F076FF1021200000F034FFDFF8A06820
:10082000DFF8A078DFF8DC183A682820424301EBB3
:100830000200316850F8213000221021200000F021
:100840005FFF00F0B1FF01F033F900214FF4C870F1
:100850009FED210B01F060F901F037F900214FF411
:10086000C8709FED1F0B01F057F901F03BF9DFF85D
:100870005888D8F800104FF4C8709FED190B01F09C
:100880004BF901F03CF9D8F800104FF4C8709FED17
:10089000120B01F041F901F000FA112000904FF421
:1008A000A0734FF4F0720021002001F053FB4FF6CB
:1008B000FF78112342461421142001F048FD01F075
:1008C000E3FEDFF8C0A728685AF82000C0B201F0A4
:1008D00073FEDFF8F89707E000000000389C7C41C9
:1008E0000000000080843E4199F80000002800F0DC
:1008F000248399F80000012840F03E81DFF8DC07EE
:100900000178012940F08A80DFF8F4170868002890
:100910003BD13068401C306030680A2812DB092067
:1009200030601120029011200190102000900B23C4
:10093000DFF89C07316850F821206A217C2001F003
:10094000AFFC11E0112002901120019010200090C6
:100950000B23DFF87C07316800EB810050F8042C92
:100960006A217C2001F09CFC11200290CDF80480CB
:10097000102000900B23DFF85807316850F8212031
:100980006A217C2001F08CFCD4E20868012840F048
:10099000D182DFF87CB7DBF80000401CCBF8000008
:1009A000DBF800000A2814DB0920CBF80000112036
:1009B000029011200190102000900B23DFF8100707
:1009C000DBF8001050F821206A217C2001F068FC3F
:1009D00012E01120029011200190102000900B23B2
:1009E000DFF8EC06DBF8001000EB810050F8042C77
:1009F0006A217C2001F054FC11200290CDF8048083
:100A0000102000900B23DFF8C806DBF8001050F828
:100A100021206A217C2001F043FC8BE2017802292D
:100A20002AD12868401C28602868072801DB062096
:100A30002860DFF84C06296850F821300022002198
:100A4000200000F05DFE01F01FFE28685AF820002B
:100A5000C0B201F0B1FD11200290CDF80480102049
:100A600000900B23DFF86C06296850F821204621FE
:100A70007C2001F015FC5DE2017803291FD1386864
:100A8000401C386038680B2801DB0A2038601120D0
:100A90000290CDF80480102000900B239B46DFF8D5
:100AA000E805396800EBC100D0E9000101F0F6FD6E
:100AB00002005B461C21682001F0F2FB3AE201785B
:100AC000042944D1DFF82CB6DBF80000401CCBF839
:100AD0000000DBF80000072814DB0620CBF800003C
:100AE0001120029011200190102000900B23DFF8BC
:100AF000E805DBF8001050F821202E21902001F0AD
:100B0000CFFB12E0112002901120019010200090E4
:100B10000B23DFF8C405DBF8001000EB810050F870
:100B2000042C2E21902001F0BBFB11200290CDF867
:100B30000480102000900B23DFF89C05DBF80010E8
:100B400050F821202E21902001F0AAFBF2E100783C
:100B5000002840F0EF810120DFF8A4150860DFF8DD
:100B6000A805DFF8AC15096850F8213000221021E3
:100B7000200000F0C5FDDDE199F80000022840F0FA
:100B80003881DFF858050178012940F08880DFF8C6
:100B90007015086800283AD13068401E306030680F
:100BA000002812D500203060112002901120019001
:100BB000102000900B23DFF81805316850F8212031
:100BC0006A217C2001F06CFB10E0112002901120C2
:100BD0000190102000900B23DFF8F404316800EB43
:100BE000810042686A217C2001F05AFB11200290AA
:100BF000CDF80480102000900B23DFF8D404316876
:100C000050F821206A217C2001F04AFB92E108681B
:100C1000012840F08F81DFF8F8B4DBF80000401EB7
:100C2000CBF80000DBF80000002814D50020CBF83A
:100C300000001120029011200190102000900B2341
:100C4000DFF88C04DBF8001050F821206A217C20AA
:100C500001F026FB11E011200290112001901020DC
:100C600000900B23DFF86804DBF8001000EB810034
:100C700042686A217C2001F013FB11200290CDF81C
:100C80000480102000900B23DFF84404DBF80010F0
:100C900050F821206A217C2001F002FB4AE1017812
:100CA00002292AD12868401E28602868002801D51A
:100CB00000202860DFF8C803296850F8213000229E
:100CC0000021200000F01CFD01F0DEFC28685AF82D
:100CD0002000C0B201F070FC11200290CDF8048019
:100CE000102000900B23DFF8EC03296850F8212036
:100CF00046217C2001F0D4FA1CE1017803291ED1A1
:100D00003868401E38603868002801D500203860F7
:100D100011200290CDF80480102000900B239B46F8
:100D2000D948396800EBC100D0E9000101F0B6FCF8
:100D300002005B461C21682001F0B2FAFAE001785B
:100D4000042940D1DFF8ACB3DBF80000401ECBF83B
:100D50000000DBF80000002813D50020CBF80000CD
:100D60001120029011200190102000900B23DA48EE
:100D7000DBF8001050F821202E21902001F090FA8D
:100D800010E01120029011200190102000900B2300
:100D9000D148DBF8001000EB810042682E21902042
:100DA00001F07EFA11200290CDF80480102000900E
:100DB0000B23C948DBF8001050F821202E21902089
:100DC00001F06EFAB6E00078002840F0B380002011
:100DD000CB490860CB493A682820424301EB020026
:100DE000316850F8213000221021200000F088FCEA
:100DF000A0E099F80000032840F09C80B7490878EB
:100E000001281ED1022008701120039011200290A9
:100E100014200190142000900223B54A7C21542014
:100E200001F00AFA11200390CDF8088014200190F7
:100E3000142000900323AA4A7C21542001F0FCF9DD
:100E400078E0087802281ED1032008701120039052
:100E50001120029014200190142000900323A04A36
:100E60007C21542001F0E8F911200390CDF808808E
:100E7000142001901420009002239A4A7C215420CF
:100E800001F0DAF956E0087803281ED10420087032
:100E90001120039011200290142001901420009042
:100EA0000223904A7C21542001F0C6F911200390BE
:100EB000CDF80880142001901420009002238A4A63
:100EC0007C21542001F0B8F934E00878042810D1CE
:100ED000002008701120039011200290142001902E
:100EE000142000900223804A7C21542001F0A4F9B0
:100EF00020E0087800281DD10120087011200390FF
:100F000011200290102001900B2000900823774AB6
:100F10008021542001F0EEF811200390CDF80880D4
:100F200014200190142000900223714A7C21542047
:100F300001F082F9002089F8000000F0B9FDDFF827
:100F4000489100214FF4C8703A6809EBC20292ED53
:100F5000000B00F0E1FD00F0D2FD00214FF4C8705D
:100F60003A6809EBC20292ED000B00F0D5FD00F0EB
:100F7000B9FD42485F49096850F821104FF4C87024
:100F80009FED5D0B00F0C8FD5D49086800280ED19B
:100F90005C493A682820424301EB0200316850F86E
:100FA000213000221021200000F0AAFB91E4086803
:100FB00001287FF48EAC54485549096850F8213017
:100FC00000221021200000F09BFB82E480B592B04B
:100FD00006A8302101F076FB01A8142101F072FB74
:100FE000002000904948016851F08051016000687C
:100FF00010F0805000900098002000904548016853
:1010000051F440410160006810F4404000900098A5
:10101000012006905FF48030079002200C905FF46E
:1010200080000D900F200E90D8200F90022010907D
:101030000420119006A801F085FB002801D000F0E3
:101040006BF801F075FD002801D000F065F80F2065
:10105000019002200290002003904FF4A0500490D1
:101060004FF480500590052101A801F09FFD002854
:1010700001D000F051F813B000BD0000445800202A
:10108000305700202858002050570020389C7C41C1
:101090005C907D4180847E41A4787F4164368041AC
:1010A00076B08041882A81419AA48141AC1E824158
:1010B000BE988241D01283416058002074580020AD
:1010C000785800207C580020FC55002095580020BE
:1010D0000C140020D4130020F01300209658002098
:1010E000C81300203C14002040140020A83C000835
:1010F0003E140020805800200000000080843E4103
:1011000088580020445400200058002040380240F5
:10111000845800200070004072B6FEE780B50B488E
:10112000016851F400710160016851F4806101604F
:10113000016851F480710160032001F0A7FE0020D6
:1011400001F0DCFE01F000FF002002BD003C024087
:1011500019490A6832F004020A6018490200D2B242
:10116000082392FBF3F20A7009784FF47A7211FBAC
:1011700002F1134A1180704710B403009BB210496A
:1011800009884B430F490B600F4900230B600A4B42
:101190001C6854F001041C601C68220012F0011449
:1011A000012CF9D01C68640864001C6000230B60EB
:1011B00010BC70470000000010E000E094580020D0
:1011C0009058002014E000E018E000E02DE9F84F0E
:1011D00086B06846142101F075FA00200590A648F3
:1011E000016851F010010160016811F010010591D2
:1011F000059900210591016851F0800101600168A5
:1012000011F080010591059900210591016851F0C7
:1012100004010160016811F00401059105990021A4
:101220000591016851F001010160016811F00101AF
:101230000591059900210591016851F002010160B5
:10124000016811F0020105910599002105910168DD
:1012500051F480710160016811F480710591059964
:1012600000210591016851F008010160016811F049
:1012700008010591059900210591016851F040018F
:101280000160006810F04000059005987B4C012239
:101290000821200001F0A3FF00221021200001F00E
:1012A0009EFF774D012240F60241280001F097FF92
:1012B000744E00224FF44271300001F090FF724FE3
:1012C000012242F2A301380001F089FF00228021AF
:1012D000280001F084FFDFF8B48100224FF42041A0
:1012E000404601F07CFFDFF8A89100221521484616
:1012F00001F075FFDFF89CA100224021504601F06B
:101300006EFFDFF894B101224FF40071584601F0EE
:1013100066FF00224FF4E051584601F060FF0022C2
:101320004FF41071380001F05AFF1820009001208E
:10133000019000200290022003906946200001F0F5
:1013400023FE40F682400090012001900020029090
:10135000022003906946280001F016FE0820009044
:101360000120019000200290022003906946300085
:1013700001F00AFE42F2232000900120019000209B
:101380000290022003906946380001F0FDFD4FF401
:10139000885000905FF4041001900120029069468B
:1013A000280001F0F1FD4FF4007000900020019042
:1013B000002002906946280001F0E6FD4FF44070DD
:1013C00000900120019000200290002003906946C7
:1013D000300001F0D9FD4FF4204000900120019031
:1013E00000200290022003906946404601F0CCFDA7
:1013F000152000900120019000200290022003900F
:101400006946484601F0C0FD40200090012001904F
:1014100000200290022003906946504601F0B4FD7E
:101420004FF4F05000900120019000200290022023
:1014300003906946584601F0A7FDC02000900120A6
:10144000019000200290002003906946380001F0CE
:101450009BFD00220121172001F01EFD172001F045
:1014600030FD00220121282001F016FD282001F086
:1014700028FD07B0BDE8F08F303802400010024070
:10148000000802400000024000040240001C02402C
:1014900000200240000C02400018024080B537488E
:1014A000374901604FF48271416000218160002161
:1014B000C16000210161002141614FF4007181612F
:1014C0000021C1610021016200214162002181628D
:1014D0000A21C16201F0C2FE002801D0FFF71CFE04
:1014E00001BD10B586B0040001A8142101F0EAF88E
:1014F0002068234988423FD100200090214801689C
:1015000051F480410160006810F480400090009820
:10151000002000901C48016851F00401016001683E
:1015200011F004010091009900210091016851F02F
:1015300002010160006810F00200009000980C2089
:1015400001900220029000200390032004900520C7
:10155000059001A90D4801F017FD4FF4806001903E
:1015600002200290002003900320049005200590A3
:1015700001A9074801F008FD06B010BDA8570020DA
:101580000038004040380240303802400008024035
:10159000000402401CB52A48D0E90023CDE900230D
:1015A000284C29482060200000F056F8002801D07F
:1015B000FFF7B2FD00200090002001900022694654
:1015C000200000F0B9F8002801D0FFF7A5FD102297
:1015D0006946200000F0B0F8002801D0FFF79CFD1C
:1015E00013BD10B586B0040001A8142101F06AF8FB
:1015F00020681549884221D10020009013480168D5
:1016000051F000510160006810F000500090009807
:10161000002000900E48016851F00101016000684F
:1016200010F00100009000983020019003200290FB
:101630000020039001A9074801F0A6FC06B010BDE8
:10164000C03C000860580020007400404038024050
:10165000303802400000024010B50400002C01D1D7
:1016600001200EE02079002804D1002060712000C4
:10167000FFF7B7FF022020710020206101202071B8
:10168000002010BD10B40200002A01D1012035E075
:101690005079012801D1022030E001205071022050
:1016A000107110680368012411F010008440234376
:1016B0001068036000290CD11068006810F03C002D
:1016C0003C2816D11068406850F00100136858603B
:1016D0000FE01068036813F470133C2411F010003D
:1016E0008440A34205D11068406850F0020013689E
:1016F00058600120107100205071002010BC70470C
:1017000038B4040000200090002C01D1012011E029
:1017100020680090002905D1009D12F108004519AC
:10172000009504E0009D12F1140045190095009801
:101730000360002032BC7047F0B403000024002B8B
:1017400001D0002901D101202CE05879012801D1D4
:10175000022027E0012058710220187118680568DE
:1017600040F6FE7612F010008640B5430E684868D9
:10177000064312F0100016FA00F0054318680560E1
:10178000186807685FF0C00C12F010001CFA00FC2B
:1017900037EA0C071868076001201871002058719B
:1017A0002000C0B2F0BC704770B501228021B04863
:1017B00001F015FDAF4C00224FF40041200001F074
:1017C0000EFD00221021AC4801F009FD00224FF46B
:1017D0000071AA4801F003FD00220821A84801F089
:1017E000FEFCA84D00224FF40061280001F0F7FC38
:1017F00000224FF48051280001F0F1FCA24E00229B
:101800000421300001F0EBFC00220121300001F046
:10181000E6FC00224FF48061280001F0E0FC002289
:101820004FF40051200001F0DAFC9B4C00224021D3
:10183000200001F0D4FC0620FFF79EFC012240218D
:10184000200001F0CCFC6420FFF796FC0022402130
:10185000200001F0C4FC70BD38B52DED048B0400F0
:101860009FED8E9B53EC102B51EC190B01F0F4FE05
:1018700041EC180B51EC180B01F0DCFF01000916CC
:10188000217002001214627003001B12A370050085
:10189000E570BDEC048B31BD10B5774C00221021F2
:1018A000200001F09CFC0C20FFF766FC01221021B7
:1018B000200001F094FC1820FFF75EFC00221021AC
:1018C000200001F08CFC10BD2DE9F94F81B00C0017
:1018D000150000208DF80100002600208DF8000082
:1018E0005FF0000B9DF80470DFF8888100224FF450
:1018F0000041404601F073FCDFF874910022802122
:10190000484601F06CFC5FF0000A5046C0B208285F
:101910001EDA00224FF40041404601F060FC38001E
:10192000C0B2000605D501220421574801F057FC3A
:1019300004E000220421544801F051FC01224FF43C
:101940000041404601F04BFC7F001AF1010ADCE740
:1019500000224FF40041404601F041FC5FF0000BD3
:1019600058462100C0B2C9B2884231D25846C0B2EE
:10197000285C0600002082465046C0B208281EDAC5
:1019800000224FF40041404601F029FC3000C0B273
:10199000000605D5012204213B4801F020FC04E0AB
:1019A00000220421384801F01AFC01224FF40041C2
:1019B000404601F014FC76001AF1010ADCE700222F
:1019C0004FF40041404601F00AFC1BF1010BC7E750
:1019D0009DF80800012801D1FFF75EFF0122802158
:1019E000484601F0FCFBBDE8F78F000010B52DED77
:1019F000048B04009FED2B9B53EC102B51EC190B27
:101A000001F02AFE41EC180B51EC180B01F012FF0B
:101A100001000912217002006270BDEC048B10BD40
:101A200038B52DED048B05000C009FED189B53EC91
:101A3000102B51EC190B01F00FFE164A1B4B01F055
:101A40000BFE41EC180B51EC180B00F027FE297827
:101A500021700100090A6A7812F0FC026A706A7843
:101A60000A4362700200A270BDEC048B31BD00001D
:101A700000080240001C0240001002400004024026
:101A80000000024000180240002002400000000058
:101A90000000F03FCDCCCCCC000C024095D626E81F
:101AA0000B2E2140176CC1166CC14640CCCC0040B7
:101AB00080B5DFF8200100788DF8000000236A4629
:101AC00001210020FFF700FF01BD80B5DFF808010C
:101AD00000788DF8000000236A4601210020FFF7FE
:101AE000F3FE01BD80B5DFF8F40000788DF800004A
:101AF00000236A4601210020FFF7E6FE01BD80B504
:101B0000DFF8DC0000788DF8000000236A46012130
:101B10000020FFF7D9FE01BDF8B52DED028B86B090
:101B2000B0EE408AF0EE608A05000E0003A8DFF8F0
:101B30009C100A68026002A8DFF894100A6802602C
:101B400001A8DFF8A0100A680260002301AA03219F
:101B50000120FFF7B9FE002302AA03210320FFF7AB
:101B6000B3FE68460400300001F082FE41EC100B29
:101B70002000FFF73BFF00236A4602210520FFF704
:101B8000A3FE04A903A807000C00280001F070FEC2
:101B900041EC100B21003800FFF742FF002304AA9C
:101BA00003210620FFF790FE05A8B0EE480AF0EEEC
:101BB000680AFFF751FE012305AA04210420FFF75C
:101BC00083FE06B0BDEC028BF1BD0000C83C0008EE
:101BD000CC3C00086E3800086F38000892380008C6
:101BE00093380008D03C000811B581B0DFF83446C6
:101BF0000A23012201A9200001F097FB200001F037
:101C000076FC0128FAD113BD10B5DFF81C460A2373
:101C10002288DFF81816DFF80C0601F086FB00209A
:101C2000208010BD38B5040001224021DFF80006F5
:101C300001F0D5FADFF8FC5500224FF400712800BE
:101C400001F0CDFA2000C0B2FFF7CEFF01224FF421
:101C50000071280001F0C3FA31BD38B5040000223C
:101C60004021DFF8CC0501F0BAFADFF8C8550022B0
:101C70004FF40071280001F0B2FA2000C0B2FFF763
:101C8000B3FF01224FF40071280001F0A8FA31BD22
:101C90000A6803680B600260704710B5DFF894456E
:101CA00001224FF48071200001F099FA01224FF4D3
:101CB0000071200001F093FA01224021DFF8700545
:101CC00001F08DFA6420FFF757FA00224FF480717B
:101CD000200001F084FA4FF4FA70FFF74DFA012268
:101CE0004FF48071200001F07AFA4FF4FA70FFF798
:101CF00043FA00F002F810BD000080B5E020FFF7C5
:101D0000ACFF0020FFF78EFF1320FFF78BFF18209A
:101D1000FFF788FF0420FFF785FF0F20FFF782FF02
:101D20000620FFF77FFF3A20FFF77CFF5620FFF7E2
:101D300079FF4D20FFF776FF0320FFF773FF0A209E
:101D4000FFF770FF0620FFF76DFF3020FFF76AFFF7
:101D50003E20FFF767FF0F20FFF764FFE120FFF74A
:101D60007CFF0020FFF75EFF1320FFF75BFF1820CA
:101D7000FFF758FF0120FFF755FF1120FFF752FF33
:101D80000620FFF74FFF3820FFF74CFF3420FFF706
:101D900049FF4D20FFF746FF0620FFF743FF0D20C8
:101DA000FFF740FF0B20FFF73DFF3120FFF73AFF21
:101DB0003720FFF737FF0F20FFF734FFC020FFF772
:101DC0004CFF1820FFF72EFF1620FFF72BFFC12036
:101DD000FFF743FF4520FFF725FFC520FFF73DFF35
:101DE0000020FFF71FFF6320FFF71CFF0120FFF714
:101DF00019FF3620FFF731FFF820FFF713FF3A20D5
:101E0000FFF72BFF6620FFF70DFFB020FFF725FF40
:101E10008020FFF707FFB120FFF71FFF0020FFF72B
:101E200001FF1020FFF7FEFEB420FFF716FF02208F
:101E3000FFF7F8FEB620FFF710FF0220FFF7F2FED3
:101E4000E920FFF70AFF0020FFF7ECFEF720FFF77D
:101E500004FFA920FFF7E6FE5120FFF7E3FE2C2048
:101E6000FFF7E0FE8220FFF7DDFE1120FFF7F5FE11
:101E70007820FFF781F92120FFF7EFFE7820FFF7A8
:101E80007BF92920FFF7E9FE01BD0FB581B003986A
:101E90000199884203D201A903A8FFF7F9FE04982B
:101EA0000299884203D202A904A8FFF7F1FE2A2072
:101EB000FFF7D3FE0198000AC0B2FFF7B3FE019806
:101EC000C0B2FFF7AFFE0398000AC0B2FFF7AAFE48
:101ED0000398C0B2FFF7A6FE2B20FFF7BEFE0298C4
:101EE000000AC0B2FFF79EFE0298C0B2FFF79AFE4A
:101EF0000498000AC0B2FFF795FE0498C0B2FFF73D
:101F000091FE2C20FFF7A9FE05B000BD2DE9F84396
:101F100004000D00160037003F0A17F0F807B0461E
:101F20005FEAD80818F0FC085FEAC6096B1C621C5F
:101F300029002000FFF7A9FF3800C0B2FFF772FEAA
:101F40004046C0B2FFF76EFE4846C0B2FFF76AFED9
:101F5000BDE8F1832DE9FB4F040015000C9E37000E
:101F60003F0A17F0F807B0465FEAD80818F0FC08F7
:101F7000F0008DF80000029B2A0001992000FFF775
:101F800084FF01224021DFF8A80201F028F9DFF8E0
:101F9000A49200224FF40071484601F020F95FF04E
:101FA000000A02990198091A491C8A4528D25FF053
:101FB000000B281B401C83451FD2DFF86C02DFF8A2
:101FC0006C1202888F540288521C0280028801F829
:101FD00002800288521C02809DF800200388CA54A7
:101FE0000188491C0180008843F6FD71884201DBAD
:101FF000FFF70AFE1BF1010BDBE71AF1010AD0E73C
:10200000FFF702FE01224FF40071484601F0E7F8A5
:10201000BDE8F78F02000120002902D05043491E7D
:10202000FAE770472DE9F74F04000D001E00DDF8B8
:1020300034B00E9F200080B240F2E111884205DAF0
:10204000280080B240F24111884200DB50E09DF848
:1020500008002038ADF80200BDF8020080B240014F
:10206000ADF80000DFF8FC04BDF8001000EB01083B
:102070005FF00009BDF83000814539DA5FF0000AF1
:10208000300080B2824525DA082098F800108022BE
:102090009AFBF0F300FB13A00241114207D05A460D
:1020A00019FA85F11AFA84F0FFF730FF06E03A00DA
:1020B00019FA85F11AFA84F0FFF728FF08209AFB35
:1020C000F0F100FB11A0072801D118F101081AF165
:1020D000010AD5E7300080B2082190FBF1F201FB44
:1020E0001200002801D018F1010819F10109C1E717
:1020F000BDE8F78F2DE9F74F84B01E00109C119DAD
:10210000129FDDF84C80DDF818A0BDF810B0BDF8C6
:102110001400ADF80C005FF000094846310080B2B1
:1021200089B2884217D2CDF808800197280080B282
:10213000009023009BB29AF80020BDF80C1058467E
:1021400080B2FFF76FFF1AF1010A601C10EB0B0B56
:1021500019F10109E1E707B0BDE8F08F2DE9F74F6C
:1021600004000D001E00DDF834B00E9F200080B288
:1021700040F2E111884205DA280080B240F24111B4
:10218000884200DB4CE09DF808003C2110FB01F088
:10219000ADF80000DFF8D003BDF8001000EB010837
:1021A0005FF00009BDF83000814539DA5FF0000AC0
:1021B000300080B2824525DA082098F8001080228D
:1021C0009AFBF0F300FB13A00241114207D05A46DC
:1021D00019FA85F11AFA84F0FFF798FE06E03A0042
:1021E00019FA85F11AFA84F0FFF790FE08209AFB9D
:1021F000F0F100FB11A0072801D118F101081AF134
:10220000010AD5E7300080B2082190FBF1F201FB12
:102210001200002801D018F1010819F10109C1E7E5
:10222000BDE8F78FA85700209258002044140020E2
:1022300000040240000002402DE9F74F84B01E0068
:10224000109C119D129FDDF84C80DDF818A0BDF8A0
:1022500010B0BDF81400ADF80C005FF0000948465E
:10226000310080B289B2884217D2CDF80880019738
:10227000280080B2009023009BB29AF80020BDF89D
:102280000C10584680B2FFF769FF1AF1010A601C72
:1022900010EB0B0B19F10109E1E707B0BDE8F08F76
:1022A0002DE9F34F85B015001E00119FDDF8488021
:1022B0002C005FF0000ABDF81490BDF81800ADF8CE
:1022C0000C00002D01D11AF1010A002C05D00A20C2
:1022D000B4FBF0F41AF1010AF7E75FF0000B58467F
:1022E000514680B289B288422ED2514689B25846B0
:1022F00080B2091A491E0A20FFF78CFEB5FBF0F0E8
:102300000490CDF808800197BDF84000009033009C
:102310009BB2049A3032D2B2BDF80C10484680B25B
:10232000FFF780FE514689B2584680B2091A491E0D
:102330000A20FFF76FFEB5FBF0F100FB115516EB1D
:1023400009091BF1010BCAE707B0BDE8F08F2DE9C1
:10235000FF4704000D0016001F004FF6FF78112004
:102360000390CDF8088014200190142000900523DC
:102370007E4A02210220FFF75FFF11200390CDF873
:10238000088014200190142000900523784A182119
:102390000220FFF751FF11200390CDF80880142090
:1023A0000190142000900723724A2C210220FFF78D
:1023B00043FF11200390CDF80880142001901420D1
:1023C000009006236C4A40210220FFF735FF1120C0
:1023D0000390CDF80880142001901420009006236B
:1023E000664A54210220FFF727FF11200390CDF801
:1023F000088014200190142000900623604A682170
:102400000220FFF719FF11200390CDF80880142057
:1024100001901420009004235A4A7C210220FFF7E7
:102420000BFF11200290CDF80480102000900B23A8
:10243000554A06216820FFF733FF0FF21C191120BF
:102440000390CDF80880102001900B20009002230B
:102450004A460621B720FFF74DFE11200290CDF825
:102460000480102000900B239A4648484849096888
:1024700000EBC100D0E9000100F010F90200534662
:102480001C216820FFF70CFF11200390CDF8088075
:10249000102001900B20009002234A461C21C220EC
:1024A000FFF728FE11200290CDF804801020009044
:1024B0000B2338483849096850F821202E219020F4
:1024C000FFF7EEFE11200390CDF808801020019058
:1024D0000B200090022321A22E21B320FFF70AFE39
:1024E00011200290CDF80480102000900B232B487F
:1024F0002B49096850F8212046217C20FFF7D0FEA7
:1025000011200290CDF80480102000900B2325228A
:1025100046219420FFF786FD11200290CDF804801B
:10252000102000900B231F481F49096850F82120F4
:102530006A217C20FFF7B4FE11200390CDF80880BB
:10254000102001900B200090022305A26A21AA20EE
:10255000FFF7D0FDBDE8FF87487A00006E730000EA
:102560006D56000000000020E00B00209C130020AE
:10257000A4130020AC130020B4130020BC130020CF
:10258000CC130020C413002080841E00505700206C
:102590007C580020F013002080580020D413002025
:1025A000745800200C14002078580020002181422B
:1025B00001D2491CFBE77047F8B504000025364FEF
:1025C00000222021380000F00AFE012202213800FA
:1025D00000F005FE0320FFF7E9FF26003000C0B23F
:1025E000002812D001220121380000F0F8FDC82097
:1025F000FFF7DCFF00220121380000F0F0FD4FF46E
:102600001670FFF7D3FF761EE8E70022012138009D
:1026100000F0E5FD01222021380000F0E0FDF1BDD1
:10262000F8B5040000251C4F00222021380000F0DE
:10263000D6FD00220221380000F0D1FD0320FFF773
:10264000B5FF26003000C0B2002812D001220121BF
:10265000380000F0C4FDC820FFF7A8FF00220121C8
:10266000380000F0BCFD4FF41670FFF79FFF761E98
:10267000E8E700220121380000F0B1FD012220210D
:10268000380000F0ACFDF1BD80B56320FFF7C8FF56
:102690003120FFF791FF01BD00040240400D4918B1
:1026A00040EA81200CD2490DA1F58061491C40F01F
:1026B000004005DBD1F11F0154BFC840C01770476F
:1026C00000207047002201F0E5B8F0B4024610681F
:1026D00095681318506803EB5004C0071DD54D448E
:1026E0001BE013F8017B05F8017B491EF9D1A0B16D
:1026F000B60813F8011B06F00306032E08BF13F8F3
:10270000016B01EB06214942801C294405D011F8D8
:10271000016B05F8016B401EF9D1A3420ED013F8EE
:10272000016B16F0030104BF13F8011BC91C30092B
:102730000F28DAD113F8010B0F30D6E7F0BC02F105
:102740000C0070472DE9F8430400002C01D1012052
:10275000D8E12078C0075FD5DFF8AC03016811F03D
:102760000C01042909D0006810F00C0008280ED1D3
:10277000DFF898030068400209D5DFF89403006889
:10278000800349D56068002846D10120BAE160681D
:10279000B0F5803F06D1DFF87803016851F480314D
:1027A000016018E06068B0F5A02F0AD1DFF860037F
:1027B000016851F480210160016851F480310160A9
:1027C00009E0DFF84C03016831F4803101600168F1
:1027D00031F480210160606800280ED001F074F8A7
:1027E0000500DFF82C030068800315D401F06CF8B5
:1027F000401B6528F5D3032084E101F065F805004E
:10280000DFF80C030068800306D501F05DF8401B7B
:102810006528F5D3032075E1207880074CD5DFF8D3
:10282000E802016811F00C0F08D0006810F00C00ED
:10283000082814D1B5480068400210D4B448016893
:10284000890704D5E168012901D001205AE1016816
:1028500031F0F801226951EAC20101602CE0E06820
:10286000002818D00120AB49086001F02DF80500C0
:10287000A7480168890706D401F026F8401B032801
:10288000F6D303203EE1016831F0F801226951EAF4
:10289000C201016010E000209E49086001F014F8B8
:1028A00005009B480068800706D501F00DF8401B25
:1028B0000328F6D3032025E12078000724D560699A
:1028C000002810D001209449086000F0FDFF0500A9
:1028D00092480068800717D400F0F6FF401B0328D9
:1028E000F6D303200EE100208B49086000F0ECFFD6
:1028F00005008A480068800706D500F0E5FF401B08
:102900000328F6D30320FDE0207840077CD500277C
:10291000DFF80C82D8F80000C0000FD4002000902F
:10292000D8F8000050F08050C8F80000D8F8000037
:1029300010F080500090009801200700DFF8E4912B
:10294000D9F80000C00513D4D9F8000050F4807005
:10295000C9F8000000F0B8FF0500D9F80000C00574
:1029600006D400F0B1FF401B0328F6D30320C9E0D2
:10297000A068012805D16C48016851F0010101608F
:1029800015E0A068052809D16748016851F00401E5
:102990000160016851F00101016008E062480168CE
:1029A000490849000160016831F004010160A06834
:1029B00000280FD000F088FF05005B480068800702
:1029C00018D400F081FF401B41F289318842F4D3D2
:1029D000032097E000F078FF050053480068800767
:1029E00008D500F071FF401B41F289318842F4D3D1
:1029F000032087E03800C0B2012805D1D8F80000D4
:102A000030F08050C8F80000A069002879D03E4816
:102A1000006810F00C00082847D0A069022833D1C4
:102A2000424F0020386000F04FFF8046DFF8E09012
:102A3000D9F80000800107D500F046FFB0EB080090
:102A40000328F3D303205DE0E169206A0143606A53
:102A500051EA8011A06A4008401E51EA0041E06A34
:102A600051EA0061294801600120386000F02CFF24
:102A70000500D9F80000800143D400F025FF401B79
:102A80000328F6D303203DE000202849086000F029
:102A90001BFF05001E480068800132D500F014FFBE
:102AA000401B0328F6D303202CE0A069012801D1A4
:102AB000012027E0154800680600A06901281ED003
:102AC00016F48000E169884219D116F03F00216AAE
:102AD000884214D147F6C0703040616AB0EB811F64
:102AE0000DD116F44030A16A4908491EB0EB014FE0
:102AF00005D116F07060E16AB0EB016F01D00120E2
:102B000000E00020BDE8F2830838024004380240AB
:102B10000038024000004742800E474274380240AD
:102B20004038024000700040703802406000474268
:102B30007CB50024002000901948016851F08051B4
:102B40000160006810F08050009000980120154945
:102B5000086000F0B9FE0500104C2068C00308D4DE
:102B600000F0B2FE401B40F2E9318842F4D303206A
:102B700012E001200C49086000F0A6FE0600206863
:102B8000800308D400F0A0FE801B40F2E9318842A7
:102B9000F5D3032000E0002076BD00000470004063
:102BA0004038024040000E4244000E422DE9F04100
:102BB00004000D00002C01D1012095E04B4F386836
:102BC00010F00F00A84207D23D70386810F00F00D7
:102BD000A84201D0012087E02078800716D5207810
:102BE000400704D54248016851F4E0510160207863
:102BF000000704D53E48016851F4604101603C493A
:102C00000A6832F0F002A06802430A602078C00728
:102C100038D56068012805D136480068800313D490
:102C2000012061E06068022802D06068032805D1B5
:102C300030480068800107D4012055E02D48006825
:102C4000800701D401204FE0DFF8A480D8F80010FD
:102C50008908890060680143C8F8001000F034FE5C
:102C60000600D8F8000010F00C006168B0EB810F8E
:102C700008D000F029FE801B41F289318842F0D350
:102C8000032031E0386810F00F00854207D23D7014
:102C9000386810F00F00A84201D0012024E020780D
:102CA000400706D512490A6832F4E052E068024350
:102CB0000A602078000707D50D48016831F46041AB
:102CC000226951EAC201016000F01CF80A49084A71
:102CD0001268C2F30312895CC840084908600848BA
:102CE000006800F00BF90020BDE8F081003C0240D4
:102CF0000838024000380240783C000838140020B0
:102D0000341400202DE9F04100240025002600277E
:102D10001F48006810F00C00002804D0042804D0DC
:102D2000082804D031E01B4830E01B482EE0DFF8D3
:102D30006C80D8F8000010F03F000400D8F80000C4
:102D400040020CD5D8F80000C0F388101249A1FB4E
:102D500000012200002300F0BDFD05000BE0D8F8C3
:102D60000000C0F388100B49A1FB000122000023E2
:102D700000F0B0FD0500D8F80000C0F30140401C91
:102D800040000600B5FBF6F000E00248BDE8F08127
:102D9000083802400024F40040787D0104380240E5
:102DA00010B410F00703DFF8344122684FF6FF013A
:102DB0000A40DFF82C1151EA03210A43226010BCBB
:102DC0007047DFF818010068C0F302207047000068
:102DD000010049B200290AD4012210F01F018A40E3
:102DE000DFF8001103005BB25B0941F82320704754
:102DF00010B4020052B2002A05D40A013A4B040072
:102E000064B21A5508E00A01384B040064B214F0A9
:102E10000F04234403F8042C10BC704770B4030063
:102E200013F00704D4F10700052801D3042001E0C2
:102E3000D4F10700251D072D01D2002500E0E51E75
:102E4000012616FA00F0401E0140A94016FA05F5C9
:102E50006D1E2A401143080070BC704710B5040075
:102E6000601EB0F1807F01D301200EE0601E20497A
:102E700008600F215FF0FF30FFF7BAFF00201D4907
:102E8000086007201C490860002010BD10B5040030
:102E90002000FFF785FF10BD2DE9F04104000D0073
:102EA00016000027FFF78DFF8046320029004046BC
:102EB000FFF7B4FF0100200040B2FFF799FFBDE823
:102EC000F08110B50400200040B2FFF781FF10BD73
:102ED00010B504002000FFF7C1FF10BD0CED00E0AD
:102EE0000000FA0500E100E000E400E018ED00E079
:102EF00014E000E018E000E010E000E010B504008D
:102F00004FF47A700D490978B0FBF1F00C4909686B
:102F1000B1FBF0F0FFF7DCFF002801D001200CE04E
:102F2000102C09D2002221005FF0FF30FFF7B4FF20
:102F300004480460002000E0012010BD421400207D
:102F4000381400203414002081B0002000900C4878
:102F5000016851F480410160006810F480400090E5
:102F60000098002000900748016851F080510160EE
:102F7000006810F080500090009801B0704700BFCA
:102F80004438024040380240F8B5002300240025B0
:102F90000026102E80F01781012717FA06F2130081
:102FA0000A681A4014009C4240F00B810A7912F022
:102FB0000302012A04D00A7912F00302022A1FD167
:102FC000D0F808C05FF0030E3200D2B252001EFAF1
:102FD00002FE3CEA0E0CD1F80CE03200D2B25200F4
:102FE0001EFA02FE5EEA0C0CC0F808C04268B74048
:102FF000BA434F68C7F30017B7403A43150045601E
:103000000A7912F00302032A14D0C7685FF0030C98
:103010003200D2B252001CFA02FC37EA0C07D1F897
:1030200008C03200D2B252001CFA02FC5CEA070768
:103030003D00C5600A7912F00302022A1ED1320057
:10304000D20800EB8202176A5FF00F0C16F007023D
:10305000D2B292001CFA02FC37EA0C07D1F810C079
:1030600016F00702D2B292001CFA02FC5CEA0707D3
:103070003D003200D20800EB8202156207685FF063
:10308000030C3200D2B252001CFA02FC37EA0C07E1
:1030900091F804C01CF0030C3200D2B252001CFAAA
:1030A00002FC5CEA07073D0005604A6812F4403FF5
:1030B00000F0878000220092DFF85C21176857F447
:1030C00080471760126812F480420092009ADFF87D
:1030D0004CC1320092085CF822705FF00F0E16F0BF
:1030E0000302D2B292001EFA02FE37EA0E07DFF8A0
:1030F0003021904201D1002530E0DFF828219042B4
:1031000001D101252AE0DFF82021904201D10225DA
:1031100024E0DFF81821904201D103251EE0444A43
:10312000904201D1042519E0424A904201D105257F
:1031300014E0414A904201D106250FE03F4A9042F7
:1031400001D107250AE03E4A904201D1082505E059
:103150003C4A904201D1092500E00A25EDB216F063
:103160000302D2B2920095402F43320092084CF8ED
:103170002270354D2A68A243D1F804C05FEACC2CF6
:1031800000D522432A60314F3D68A543D1F804C0E1
:103190005FEA8C2C00D525433D602D4F3A68A24351
:1031A000D1F804C05FEA8C3C00D522433A60294F35
:1031B0003D68A543D1F804C05FEACC3C00D5254367
:1031C0003D60761CE5E6F1BD020010690B009BB284
:1031D000184201D0012000E00020C0B27047130067
:1031E000DBB2002B03D00B009BB2836103E00B002A
:1031F0009BB21B048361704710B504001648016838
:10320000220092B2114206D0210089B20160200052
:1032100080B200F077FC10BD44380240083801400D
:10322000000002400004024000080240000C02407E
:10323000001002400014024000180240001C02402E
:103240000020024000240240083C01400C3C0140A8
:10325000043C0140003C0140143C014010B5040016
:10326000002C01D101205FE0606A002806D160686F
:10327000B0F5827F06D00020E06103E000202061ED
:10328000002060610020A06294F85100002805D160
:10329000002084F850002000FEF723F9022084F873
:1032A00051002068006830F04000216808606068C4
:1032B00010F48270A16811F404410843E16811F42C
:1032C00000610843217C11F002010843217D11F0C7
:1032D00001010843A16911F400710843217F11F035
:1032E0003801084394F8201011F080010843A16AC6
:1032F00011F40051084321680860A069000C10F027
:10330000040094F8241011F010010843216848606B
:103310002068C06930F400602168C86100206065E1
:10332000012084F85100002010BD2DE9FC47060063
:103330000D0017001C005FF0000896F850000128EF
:1033400001D10220D1E0012086F8500000F0BCFA43
:103350008146BA4696F85100012802D002208046E4
:10336000BEE0002D03D0380080B2002802D1012039
:103370008046B5E0032086F8510000207065356373
:10338000B786F7860020B0630020B0870020F08762
:103390000020706400203064B068B0F5004F0BD19D
:1033A0003068006830F040003168086030680068BC
:1033B00050F480403168086030680068400605D4E9
:1033C0003068006850F0400031680860F068B0F57F
:1033D000006F33D17068002803D0504680B20128B6
:1033E00009D1306B00883168C860306B801C306355
:1033F000F08E401EF086F08E002853D03068806832
:1034000080070AD5306B00883168C860306B801C3B
:103410003063F08E401EF086EDE700F055FAB0EB19
:103420000900A04202D314F1010F01D1002CE2D116
:1034300003208046012086F8510051E07068002882
:1034400003D0504680B2012809D1306B0078316832
:103450000873306B401C3063F08E401EF086F08E97
:1034600000281FD03068806880070AD5306B00784C
:1034700031680873306B401C3063F08E401EF0865C
:10348000EDE700F021FAB0EB0900A04202D314F1FD
:10349000010F01D1002CE2D103208046012086F8E3
:1034A00051001DE04A462100300000F090F800284D
:1034B00001D020207065B068002808D1002000905D
:1034C0003068C06800903068806800900098706D27
:1034D000002802D00120804602E0012086F8510039
:1034E000002086F850004046C0B2BDE8F68790F84C
:1034F000510070472DE9FC4705000E001700984663
:10350000DDF8289000F0E0F90400B8EB040419EBB2
:10351000040400F0D9F98246DFF834010068400164
:10352000000D00FB04F00090286880683040B04235
:1035300001D1012000E000203900C9B2884243D007
:1035400018F1010FF0D000F0BFF9B0EB0A00A04273
:1035500001D2002C2FD12868406830F0E0002968A3
:1035600048606868B0F5827F0DD1A868B0F5004F5B
:1035700003D0A868B0F5806F05D12868006830F0E6
:10358000400029680860A86AB0F5005F0BD1286880
:10359000006830F40050296808602868006850F41A
:1035A000005029680860012085F85100002085F846
:1035B0005000032009E00098002801D100200400F9
:1035C0000098401E0090AFE70020BDE8F6877CB56C
:1035D00004000D00160000962B000122022120009D
:1035E000FFF788FF002805D0606D50F0200060656F
:1035F000032029E0154800681821B0FBF1F01549B7
:10360000B0FBF1F14FF47A70414301916068B0F57D
:10361000827F0ED100962B00002280212000FFF730
:1036200069FF00280FD0606D50F020006065032016
:103630000AE00198002806D00198401E01902068F9
:1036400080680006F5D4002076BD00003814002004
:103650003814002040420F00B0B581EA030C0CF092
:10366000004C40F2FF7515EA11541DBF15EA1357BF
:10367000AC42AF4239E0E41923EA455343F48013E6
:10368000C90241F0004141EA505EC7021100A7FBA8
:10369000020200284FF00000EEFB01204FF0000175
:1036A000E3FB072118BF42F0010240180021494105
:1036B000E3FB0E01A4F580640F0302D252004041E7
:1036C000494154F101046CDD470872F1004250F1A8
:1036D000000051EB0451A1F580115CBF41EA0C01DF
:1036E000B0BD4CEA05510020B0BD05EA1357AC420D
:1036F00014BFAF4241E050EA410E1CBF52EA430EF4
:1037000002E061460020B0BD24423C441BD15FEA88
:10371000070EF6D0090302BF01460020AEF1140ED9
:10372000B1FA81F7AEEB070401FA07FE0C37C7F1D7
:10373000200100FA07F7C8404EEA000E23EA45537D
:1037400043F48013A2E733F00043B3FA83F704BFD6
:10375000B2FA82FE77440B3FE41BB7F1200E2FBF75
:1037600002FA0EF3BB40C7F1200E22FA0EFE38BF5C
:1037700043EA0E03BA40641C82E750EA410E14BFCC
:1037800052EA430E6FF000014FF4001717EB430F9E
:103790008ABF194617EB410FB5E74CEA05510020E7
:1037A000B0BDD4F10104B4F120070FDAC4F1200751
:1037B000520828BF42F0010210FA07F501FA07F794
:1037C000E1BF2A43E0403843E1400FE0352C98DC6C
:1037D000C7F1200452EA400220FA07F218BF42F073
:1037E000010231FA07F0A1400A43002172F10042C0
:1037F00050F1000051EB0C01B0BD30B4002513E0D6
:1038000050F8042BD30744BFA9F101039A18091FEC
:10381000042942F8045BFAD213468C0744BF158092
:103820009B1CC90748BF1D7050F8041B0029E7D135
:1038300030BC7047C1F30A5340F2FE329B1A14DDCC
:10384000D3F120034FEAE17208DDC90241EA505189
:1038500041F00040D84080185040704703F2E130FA
:1038600010B1D24382F00040704700207047102012
:10387000C11768B14840401AB0FA80F29040D21C9B
:10388000C907C2F5846241EA025202EBD021400529
:103890007047408000B500BF13009646944610392B
:1038A00028BFA0E80C50FAD85FEA417C28BF0CC0C2
:1038B00048BF40F8042BC90728BF20F8022B48BF97
:1038C00000F8012B00BD000001480068704700BFF0
:1038D0008C580020BBBBE1B1B2F5803F80F07E8008
:1038E000022A1ED98C46B1FBF2F102FB11C31B0464
:1038F00043EA1043B3FBF2FC02FB1C3380B240EA04
:103900000343B3FBF2F002FB103240EA0C40002309
:103910007047022A05D98446B0FBF2F002FB10C2C0
:1039200070474AB105D100F0010249085FEA300052
:10393000704700220023704700F01EB90B00020000
:10394000002100207047904271EB030CF6D3B3F5D1
:10395000803F2FD2F0B5B3FA83F7B1FA81F4A7F123
:103960000F0E3D1B5340CEF1200602FA0EF2F3413A
:103970005340B5F10F0746D80F3C2C444140C4F1E9
:103980002006A040F1414140B1FBF3F603FB1611C4
:10399000A2FB0645001BA94102D2761E80185941A0
:1039A00080EA010221FA0EF362FA0EF200215A4077
:1039B0003046F0BD30B4B1FBF3FC03FB1C11A2FB9D
:1039C0000C45001BA94103D2ACF1010C80185941F0
:1039D00030BC02460B46604600217047B2F1807F42
:1039E00065D3F0B5B2FA82F7B1FA81F4C7F10F06E8
:1039F0003D1B22FA06F307F1110EF24120355A4021
:103A0000B5F10F07B8D94140C4F12006A040F141FB
:103A10004140B1FBF3FC03FB1C11A2FB0C45001B56
:103A2000A94103D2BCF1010C801859410F2F12D3C8
:103A30000F3FC90341EA5041B1FBF3F603FB1611F6
:103A4000A2FB0645D4EBC030A94102D2761E8018F5
:103A5000594146EACC3C07B34140C7F12006B84083
:103A6000F1414140B1FBF3F603FB1611A2FB064501
:103A7000001BA94102D2761E8018594180EA01023A
:103A800021FA0EF3C7F1200462FA0EF20CFA07F0E5
:103A90005A402CFA04F13043F0BD80EA010221FAC9
:103AA0000EF3002162FA0EF260465A40F0BD8C46D9
:103AB000B1FBF2F102FB11C31B0243EA1063B3FB3B
:103AC000F2FC02FB1C331B024CEA002043EA1063A9
:103AD000B3FBF2FC02FB1C331B024CEA002043EA5E
:103AE0001063B3FBF2FC02FB1C331B024CEA002008
:103AF00043EA1063B3FBF2FC02FB1C324CEA0020E9
:103B00000023704738B50400200080B2B0F5807FF4
:103B10001DD1174D4FF480712800FFF755FB002889
:103B2000F7D04FF400712800FFF74EFB002803D1B7
:103B300001201049087019E04FF400712800FFF7C8
:103B400043FB012812D102200A4908700EE0200030
:103B500080B2B0F5805F09D14FF480510448FFF77F
:103B600033FB0028F8D003200249087031BD00BFA4
:103B700000080240955800207047FEE7FEE7FEE788
:103B8000FEE7FEE770477047704780B500F00EF81B
:103B900001BD80B54FF48070FFF72EFB01BD80B5ED
:103BA0004FF48050FFF728FB01BD00000348016877
:103BB000034A127889180160704700BF8C580020B2
:103BC0004214002010B5074979441831064C7C4452
:103BD000163404E00A68081D114488470146A142D2
:103BE000F8D110BD2C000000480000004EF68851AE
:103BF000CEF20001086840F470000860BFF34F8FF8
:103C0000BFF36F8F4FF00070E1EE100A70470000B5
:103C1000EBFBFFFF544400004414002000000000B0
:103C2000ABEAFFFF100200009C1200000000002021
:103C300000F00DF8002801D0FFF7C4FFAFF30080BB
:103C40000020AFF30080FCF7C1FD00F002F8012076
:103C5000704700F001B800000746384600F002F84F
:103C6000FBE7000080B5AFF30080024A1100182086
:103C7000ABBEFBE7260002000000000000000000D1
:103C8000010203040607080901488047014800476C
:103C9000993C0008B53C00080248016851F47001E5
:103CA0000160704788ED00E04357206F7220414D5E
:103CB00000000000AFF30080FFF798FFFFF7B8FFA8
:103CC0000000000000000000FF17FF000023350087
:103CD000D0000000FFF7FEBFFFF7FEBFFFF7FEBFFB
:103CE000FFF7FEBFFFF7FEBFFFF7FEBFFFF7FEBF08
:103CF000FFF7FEBFFFF7FEBFFFF7FEBFFFF7FEBFF8
:103D0000FFF7FEBFFFF7FEBFFFF7FEBFFFF7FEBFE7
:103D1000FFF7FEBFFFF7FEBFFFF7FEBFFFF7FEBFD7
:103D2000FFF7FEBFFFF7FEBFFFF7FEBFFFF7FEBFC7
:103D3000FFF7FEBFFFF7FEBFFFF7FEBFFFF7FEBFB7
:103D4000FFF7FEBFFFF7FEBFFFF7FEBFFFF7FEBFA7
:103D5000FFF7FEBFFFF7FEBFFFF7FEBFFFF7FEBF97
:103D6000FFF7FEBFFFF7FEBFFFF7FEBFFFF7FEBF87
:103D7000FFF7FEBFFFF7FEBFFFF7FEBFFFF7FEBF77
:103D8000FFF7FEBFFFF7FEBFFFF7FEBFFFF7FEBF67
:103D9000FFF7FEBFFFF7FEBFFFF7FEBFFFF7FEBF57
:103DA000FFF7FEBFFFF7FEBFFFF7FEBFFFF7FEBF47
:103DB000FFF7FEBFFFF7FEBFFFF7FEBFFFF7FEBF37
:103DC000FFF7FEBFFFF7FEBFFFF7FEBFFFF7FEBF27
:103DD000FFF7FEBFFFF7FEBFFFF7FEBFFFF7FEBF17
:103DE000FFF7FEBFFFF7FEBFFFF7FEBFFFF7FEBF07
:103DF000FFF7FEBFFFF7FEBFFFF7FEBFFFF7FEBFF7
:103E0000FFF7FEBFFFF7FEBFFFF7FEBFFFF7FEBFE6
:103E1000FFF7FEBFFFF7FEBFFFF7FEBFFFF7FEBFD6
:103E2000FFF7FEBFFFF7FEBFFFF7FEBFFFF7FEBFC6
:103E3000FFF7FEBFF2100001D20C022112C10120D7
:103E4000041DC01DC0088002F1034E430D800220F6
:103E5000023FC01B000441026101100304001F80E7
:103E60003102300538001E000F00030C123F16729D
:103E70000422100118002402D00B18C007801E0075
:103E80003180024002400168120F242102D0070C49
:103E9000001D80370033001D20120702320202F19C
:103EA0000301120302700106000EE0120E0E21142F
:103EB0006101415A92060270030C001C0018202177
:103EC0001210033FC03FC00FCAF604190221E621B9
:103ED00002B0013F8004DAF1050112062210010C44
:103EE000000802E101F001123F800001C60CA04071
:103EF00005C000C001800180E6211C21D0123002E3
:103F00006101160E8E83318002121B12A101B001D5
:103F100006003EFE21EEA12130010F00193841605C
:103F2000215CC1A830013F006180161FDE218A1686
:103F300061E0A101259E10010F000B861613BC1233
:103F40003F2AB20F40471F80DE30011F001140C0E2
:103F50000121801F4026808E3003300037003988D1
:103F6000B00119800F2070037F00430003BCE60CF2
:103F70002053001FFE6108D23160121E96211630B8
:103F80000133801DC8F4010207003C878156E160BF
:103F90004101895225E0D5DE13C003141001180039
:103FA0006004220428F302C00001437FC004F10131
:103FB0000181386148C10141DA50010180079CC18B
:103FC000A010030E0011002102100127002902D8C1
:103FD00003270020001102163FA01609E6C00819A9
:103FE000801F8030C030C079E061567F3A523F0870
:103FF000E27F8030054030C06040600002D7403032
:104000006041406330C002F1014010017F80300206
:104010001A32882332000ADE7F080350047FC03042
:10402000403040201102D27C40121E942360807EDA
:10403000F4010067C061E0500200007BC0C059007D
:10404000D67B66FF0B3FC0000311E01578410232BA
:104050006302F2023E601801330036383A3E4CD219
:1040600079405E7EC0041102224002E5E6D40FE0F2
:10407000E060C071C07BC06AC06EC064C060C0FB3D
:1040800080127360180539803D80358037A6116035
:10409000D52029006360C002F604318065C2254046
:1040A000E67EC0F1004090010CC01F64614041DE1B
:1040B000D00131807CA06DE2057E1FE005C101309A
:1040C000017F804C026D8205F6063FA06102F50576
:1040D000C04D58061A0ABCC9BE14010000FB4016A8
:1040E000643C10036EC02A803B02D631202140324E
:1040F0001B384D0C05E9002C0279E030C0560469EC
:1041000000D21F401E3F94043E23D8031D00051912
:10411000A0CD0005CB07803E410252072425704DFB
:1041200062062D640629442DE4048F00C00404F2C5
:10413000021E3E12061641011204F21E0AB203F0DC
:1041400003202080208000011001FFE00842F212CD
:104150000239321F9825CA1D0805B5203270C42DBA
:104160007E054DC003F00102398077507D8403F550
:1041700000C04D1606121D58326102E1604101492E
:1041800084B8037FC06000307C15603AE034793E2B
:10419000FE040C2807931DC0603172618681C069DE
:1041A00060C900256EC586F2023F20D0013F0003A2
:1041B00002C23E602E8000041E3C0604B0013300A3
:1041C0007740F501E0F6023F0060027F8036C002D2
:1041D000F30176E020F20877C041018DC403FD01B0
:1041E000400321019677C0FE02374605F50140B233
:1041F00007666C027B801CC0C604F2027F60293A0D
:104200005E3C0204CDE00361347D0405F302800FBF
:10421000407273DEF905208D0404FD0100042101C4
:104220005EF10404FD03000421018F7BC00204F54C
:1042300003404D04044C0219800B000804DE0CE618
:10424000052D040412033EEF180000047A06985E60
:104250000CE8034DEC036101F20606026101AD7C3E
:104260000AADC808E1011D280BF00102800300011E
:104270005302040310011FFF8006700103FC0006B7
:104280003115100B00024C000E470019F980004058
:104290000003F0010407FF00011E18E0041C0104E4
:1042A00000067E07141044801045801CC40006BF21
:1042B00000009100059B000D3710050E00363B00F5
:1042C0000471FC81FF1DEC0A1C08047F80040800B7
:1042D00017180014190AEC18BF0015210035290021
:1042E000052900012900020800061C001C360030C8
:1042F0006380F508118A1DC7081C0330007FFFC0CA
:104300009208201300E00021818037130017F3800A
:1043100008C20039FF0003E10018500220003FFFEF
:10432000098300204110080420000422001F2300FC
:10433000047511F6FC180210000212001F9A000604
:104340000E000A0C001FBC400206403FC3C0020022
:1043500080FC04450522FE9287018029F50038FD86
:104360000570051186180E301000101000001000A6
:104370007C100005FF000CD42C08280018680008E9
:10438000CC0018063E0A2F07F01103E13F22183334
:1043900021F61401FE0003FF1C036C0000380030FE
:1043A000042F00ECBE031B0071C42E00390D19DE72
:1043B000F80100380001A32E013A0B501A80024187
:1043C0008006C3000C8600018F000339800762E07D
:1043D0000D0200190F8001020003F001003FC0012F
:1043E000B83405011800010C0003DD1D5906180240
:1043F000321E002237267F1D3003021F00021103E8
:10440000FE051F2806900301FC0001040322FC2581
:10441000760F951D2603214631C9FA041C9E2103FF
:10442000300307C200044203192E3008420007D2AD
:1044300000045A00044A12F002044A0007CE792D03
:10444000550B1C021F060002210338013C00049D8D
:104450001C080F17000114003314001E900DF40205
:1044600000800018FF2749581220A235803802F832
:10447000000088F132880CFC0E03620001E60006A1
:10448000BC00009E0000870000A08B0B19D4181FF1
:10449000060030020010FF801882000CBA00008273
:1044A0008000BA800CAB8009B9001B03A02206A0D3
:1044B00006B0216AE1013018187FC00C08401F08BF
:1044C000400208400608401D8840360840079840D2
:1044D000041003F8080530400422400443C00401DE
:1044E0005B530208031F06194B03F01605800500F5
:1044F000400D3F800920801920800E208003BF805E
:104500000680000C00015003023F000221031C0240
:104510001FA10007D40B600AA1000AA1001A3F00E6
:10452000122100321BEE027C0935671C01300006A7
:10453000620C100D7F000C2200342200242600049F
:10454000340004123EFFE103FE0500D30E160153B2
:104550002ED8FF066A070D6701FC7A3D63031A0037
:104560003AF0050590000310000E7EB55D3E04187C
:104570000948801F4880015E8003488094F4110040
:10458000064080045C800F54800E5C8000428000F6
:104590008380002F1D71041103200F1408001F08D1
:1045A000002448004448003F480004480F1E158C72
:1045B00004111E2238C0F105013D77041D8A031144
:1045C000B7300304500004FC06110326705C10058C
:1045D00008F80018580030219002E8000184424990
:1045E000583AE0342002A00001100311DB3703F831
:1045F0003B2A0C9D12080319371103F3070300012E
:1046000019C733060C03C01614000D12000932003E
:1046100009220010A30030E10030C1002041002039
:104620003B19FD19101C021FCF8002A10A340DBBDB
:10463000000A8E000F8E00073A000A83000217114D
:1046400081456E1C0201700001D70482FC4080038A
:1046500001F80001080611012DB703411882480630
:10466000213F22F006E303FCB71DC50E33087F0689
:10467000100D3C000824003F2400293C002B0000C2
:104680002B153249034109FD031108252FF30E6054
:104690000001F11324F119016D270659823DDF0550
:1046A0001E016D053C0202001FFA1C054106F802BE
:1046B000050A00010ED41E08C0071C1010007FBFA1
:1046C000C0127900330900330F005F86000CF90B2C
:1046D0001D4012F006070F001B19800130C0AF3ECD
:1046E000016705191380120630000EFF003C200000
:1046F00064C00004FE0004820004FA06AE075706F8
:104700002C0101020334055204081C050708090A9C
:104710000B0C1C4D0710011415161110030F10116E
:10472000121308100214191A1C121004001B161E72
:104730001F20102D1C0C1228041232042DAC101254
:104740004604125004525A5A523210126E04128CFD
:104750000412AA0412C804526408122CAC12900469
:1047600012F4041E58A00512BC041A20B4128404CA
:1047700012E804221048000824F40002031B160B60
:024780000C012A
:0400000508003CB5FE
:00000001FF
